{
  "_format": "hh-sol-artifact-1",
  "contractName": "KnownNft",
  "sourceName": "contracts/knownContract.sol",
  "abi": [
    {
      "inputs": [],
      "stateMutability": "nonpayable",
      "type": "constructor"
    },
    {
      "anonymous": false,
      "inputs": [
        {
          "indexed": true,
          "internalType": "address",
          "name": "owner",
          "type": "address"
        },
        {
          "indexed": true,
          "internalType": "address",
          "name": "approved",
          "type": "address"
        },
        {
          "indexed": true,
          "internalType": "uint256",
          "name": "tokenId",
          "type": "uint256"
        }
      ],
      "name": "Approval",
      "type": "event"
    },
    {
      "anonymous": false,
      "inputs": [
        {
          "indexed": true,
          "internalType": "address",
          "name": "owner",
          "type": "address"
        },
        {
          "indexed": true,
          "internalType": "address",
          "name": "operator",
          "type": "address"
        },
        {
          "indexed": false,
          "internalType": "bool",
          "name": "approved",
          "type": "bool"
        }
      ],
      "name": "ApprovalForAll",
      "type": "event"
    },
    {
      "anonymous": false,
      "inputs": [
        {
          "indexed": true,
          "internalType": "address",
          "name": "previousOwner",
          "type": "address"
        },
        {
          "indexed": true,
          "internalType": "address",
          "name": "newOwner",
          "type": "address"
        }
      ],
      "name": "OwnershipTransferred",
      "type": "event"
    },
    {
      "anonymous": false,
      "inputs": [
        {
          "indexed": true,
          "internalType": "address",
          "name": "from",
          "type": "address"
        },
        {
          "indexed": true,
          "internalType": "address",
          "name": "to",
          "type": "address"
        },
        {
          "indexed": true,
          "internalType": "uint256",
          "name": "tokenId",
          "type": "uint256"
        }
      ],
      "name": "Transfer",
      "type": "event"
    },
    {
      "inputs": [
        {
          "internalType": "address",
          "name": "to",
          "type": "address"
        },
        {
          "internalType": "uint256",
          "name": "tokenId",
          "type": "uint256"
        }
      ],
      "name": "approve",
      "outputs": [],
      "stateMutability": "nonpayable",
      "type": "function"
    },
    {
      "inputs": [],
      "name": "balance",
      "outputs": [
        {
          "internalType": "uint256",
          "name": "",
          "type": "uint256"
        }
      ],
      "stateMutability": "view",
      "type": "function"
    },
    {
      "inputs": [
        {
          "internalType": "address",
          "name": "owner",
          "type": "address"
        }
      ],
      "name": "balanceOf",
      "outputs": [
        {
          "internalType": "uint256",
          "name": "",
          "type": "uint256"
        }
      ],
      "stateMutability": "view",
      "type": "function"
    },
    {
      "inputs": [],
      "name": "deployDate",
      "outputs": [
        {
          "internalType": "uint256",
          "name": "",
          "type": "uint256"
        }
      ],
      "stateMutability": "view",
      "type": "function"
    },
    {
      "inputs": [
        {
          "internalType": "uint256",
          "name": "tokenId",
          "type": "uint256"
        }
      ],
      "name": "getApproved",
      "outputs": [
        {
          "internalType": "address",
          "name": "",
          "type": "address"
        }
      ],
      "stateMutability": "view",
      "type": "function"
    },
    {
      "inputs": [
        {
          "internalType": "address",
          "name": "owner",
          "type": "address"
        },
        {
          "internalType": "address",
          "name": "operator",
          "type": "address"
        }
      ],
      "name": "isApprovedForAll",
      "outputs": [
        {
          "internalType": "bool",
          "name": "",
          "type": "bool"
        }
      ],
      "stateMutability": "view",
      "type": "function"
    },
    {
      "inputs": [],
      "name": "maxSupply",
      "outputs": [
        {
          "internalType": "uint256",
          "name": "",
          "type": "uint256"
        }
      ],
      "stateMutability": "view",
      "type": "function"
    },
    {
      "inputs": [],
      "name": "name",
      "outputs": [
        {
          "internalType": "string",
          "name": "",
          "type": "string"
        }
      ],
      "stateMutability": "view",
      "type": "function"
    },
    {
      "inputs": [],
      "name": "owner",
      "outputs": [
        {
          "internalType": "address",
          "name": "",
          "type": "address"
        }
      ],
      "stateMutability": "view",
      "type": "function"
    },
    {
      "inputs": [
        {
          "internalType": "uint256",
          "name": "tokenId",
          "type": "uint256"
        }
      ],
      "name": "ownerOf",
      "outputs": [
        {
          "internalType": "address",
          "name": "",
          "type": "address"
        }
      ],
      "stateMutability": "view",
      "type": "function"
    },
    {
      "inputs": [],
      "name": "publicMint",
      "outputs": [],
      "stateMutability": "payable",
      "type": "function"
    },
    {
      "inputs": [],
      "name": "renounceOwnership",
      "outputs": [],
      "stateMutability": "nonpayable",
      "type": "function"
    },
    {
      "inputs": [
        {
          "internalType": "address",
          "name": "from",
          "type": "address"
        },
        {
          "internalType": "address",
          "name": "to",
          "type": "address"
        },
        {
          "internalType": "uint256",
          "name": "tokenId",
          "type": "uint256"
        }
      ],
      "name": "safeTransferFrom",
      "outputs": [],
      "stateMutability": "nonpayable",
      "type": "function"
    },
    {
      "inputs": [
        {
          "internalType": "address",
          "name": "from",
          "type": "address"
        },
        {
          "internalType": "address",
          "name": "to",
          "type": "address"
        },
        {
          "internalType": "uint256",
          "name": "tokenId",
          "type": "uint256"
        },
        {
          "internalType": "bytes",
          "name": "data",
          "type": "bytes"
        }
      ],
      "name": "safeTransferFrom",
      "outputs": [],
      "stateMutability": "nonpayable",
      "type": "function"
    },
    {
      "inputs": [
        {
          "internalType": "address",
          "name": "operator",
          "type": "address"
        },
        {
          "internalType": "bool",
          "name": "approved",
          "type": "bool"
        }
      ],
      "name": "setApprovalForAll",
      "outputs": [],
      "stateMutability": "nonpayable",
      "type": "function"
    },
    {
      "inputs": [
        {
          "internalType": "bytes4",
          "name": "interfaceId",
          "type": "bytes4"
        }
      ],
      "name": "supportsInterface",
      "outputs": [
        {
          "internalType": "bool",
          "name": "",
          "type": "bool"
        }
      ],
      "stateMutability": "view",
      "type": "function"
    },
    {
      "inputs": [],
      "name": "symbol",
      "outputs": [
        {
          "internalType": "string",
          "name": "",
          "type": "string"
        }
      ],
      "stateMutability": "view",
      "type": "function"
    },
    {
      "inputs": [
        {
          "internalType": "uint256",
          "name": "index",
          "type": "uint256"
        }
      ],
      "name": "tokenByIndex",
      "outputs": [
        {
          "internalType": "uint256",
          "name": "",
          "type": "uint256"
        }
      ],
      "stateMutability": "view",
      "type": "function"
    },
    {
      "inputs": [
        {
          "internalType": "address",
          "name": "owner",
          "type": "address"
        },
        {
          "internalType": "uint256",
          "name": "index",
          "type": "uint256"
        }
      ],
      "name": "tokenOfOwnerByIndex",
      "outputs": [
        {
          "internalType": "uint256",
          "name": "",
          "type": "uint256"
        }
      ],
      "stateMutability": "view",
      "type": "function"
    },
    {
      "inputs": [
        {
          "internalType": "uint256",
          "name": "tokenId",
          "type": "uint256"
        }
      ],
      "name": "tokenURI",
      "outputs": [
        {
          "internalType": "string",
          "name": "",
          "type": "string"
        }
      ],
      "stateMutability": "view",
      "type": "function"
    },
    {
      "inputs": [],
      "name": "totalSupply",
      "outputs": [
        {
          "internalType": "uint256",
          "name": "",
          "type": "uint256"
        }
      ],
      "stateMutability": "view",
      "type": "function"
    },
    {
      "inputs": [
        {
          "internalType": "address",
          "name": "from",
          "type": "address"
        },
        {
          "internalType": "address",
          "name": "to",
          "type": "address"
        },
        {
          "internalType": "uint256",
          "name": "tokenId",
          "type": "uint256"
        }
      ],
      "name": "transferFrom",
      "outputs": [],
      "stateMutability": "nonpayable",
      "type": "function"
    },
    {
      "inputs": [
        {
          "internalType": "address",
          "name": "newOwner",
          "type": "address"
        }
      ],
      "name": "transferOwnership",
      "outputs": [],
      "stateMutability": "nonpayable",
      "type": "function"
    },
    {
      "inputs": [],
      "name": "userLimit",
      "outputs": [
        {
          "internalType": "uint256",
          "name": "",
          "type": "uint256"
        }
      ],
      "stateMutability": "view",
      "type": "function"
    },
    {
      "inputs": [
        {
          "internalType": "address",
          "name": "_addr",
          "type": "address"
        }
      ],
      "name": "withdraw",
      "outputs": [],
      "stateMutability": "nonpayable",
      "type": "function"
    }
  ],
  "bytecode": "0x60806040526064600b556003600c5547600d553480156200001f57600080fd5b506040518060400160405280600881526020017f4b6e6f776e4e66740000000000000000000000000000000000000000000000008152506040518060400160405280600481526020017f4b4e574e000000000000000000000000000000000000000000000000000000008152508160009080519060200190620000a4929190620001bb565b508060019080519060200190620000bd929190620001bb565b505050620000e0620000d4620000ed60201b60201c565b620000f560201b60201c565b42600e81905550620002d0565b600033905090565b6000600a60009054906101000a900473ffffffffffffffffffffffffffffffffffffffff16905081600a60006101000a81548173ffffffffffffffffffffffffffffffffffffffff021916908373ffffffffffffffffffffffffffffffffffffffff1602179055508173ffffffffffffffffffffffffffffffffffffffff168173ffffffffffffffffffffffffffffffffffffffff167f8be0079c531659141344cd1fd0a4f28419497f9722a3daafe3b4186f6b6457e060405160405180910390a35050565b828054620001c9906200026b565b90600052602060002090601f016020900481019282620001ed576000855562000239565b82601f106200020857805160ff191683800117855562000239565b8280016001018555821562000239579182015b82811115620002385782518255916020019190600101906200021b565b5b5090506200024891906200024c565b5090565b5b80821115620002675760008160009055506001016200024d565b5090565b600060028204905060018216806200028457607f821691505b602082108114156200029b576200029a620002a1565b5b50919050565b7f4e487b7100000000000000000000000000000000000000000000000000000000600052602260045260246000fd5b6135fc80620002e06000396000f3fe6080604052600436106101665760003560e01c80636352211e116100d1578063a22cb4651161008a578063c87b56dd11610064578063c87b56dd1461051d578063d5abeb011461055a578063e985e9c514610585578063f2fde38b146105c257610166565b8063a22cb465146104a0578063b69ef8a8146104c9578063b88d4fde146104f457610166565b80636352211e1461038e57806369668fe9146103cb57806370a08231146103f6578063715018a6146104335780638da5cb5b1461044a57806395d89b411461047557610166565b806326092b831161012357806326092b831461028d5780632f745c591461029757806342842e0e146102d45780634a7c01ec146102fd5780634f6ccce71461032857806351cff8d91461036557610166565b806301ffc9a71461016b57806306fdde03146101a8578063081812fc146101d3578063095ea7b31461021057806318160ddd1461023957806323b872dd14610264575b600080fd5b34801561017757600080fd5b50610192600480360381019061018d9190612608565b6105eb565b60405161019f9190612a77565b60405180910390f35b3480156101b457600080fd5b506101bd6105fd565b6040516101ca9190612a92565b60405180910390f35b3480156101df57600080fd5b506101fa60048036038101906101f5919061265a565b61068f565b6040516102079190612a10565b60405180910390f35b34801561021c57600080fd5b50610237600480360381019061023291906125cc565b6106d5565b005b34801561024557600080fd5b5061024e6107ed565b60405161025b9190612d14565b60405180910390f35b34801561027057600080fd5b5061028b600480360381019061028691906124c6565b6107fa565b005b61029561085a565b005b3480156102a357600080fd5b506102be60048036038101906102b991906125cc565b6109b4565b6040516102cb9190612d14565b60405180910390f35b3480156102e057600080fd5b506102fb60048036038101906102f691906124c6565b610a59565b005b34801561030957600080fd5b50610312610a79565b60405161031f9190612d14565b60405180910390f35b34801561033457600080fd5b5061034f600480360381019061034a919061265a565b610a7f565b60405161035c9190612d14565b60405180910390f35b34801561037157600080fd5b5061038c60048036038101906103879190612461565b610b16565b005b34801561039a57600080fd5b506103b560048036038101906103b0919061265a565b610b6a565b6040516103c29190612a10565b60405180910390f35b3480156103d757600080fd5b506103e0610c1c565b6040516103ed9190612d14565b60405180910390f35b34801561040257600080fd5b5061041d60048036038101906104189190612461565b610c22565b60405161042a9190612d14565b60405180910390f35b34801561043f57600080fd5b50610448610cda565b005b34801561045657600080fd5b5061045f610cee565b60405161046c9190612a10565b60405180910390f35b34801561048157600080fd5b5061048a610d18565b6040516104979190612a92565b60405180910390f35b3480156104ac57600080fd5b506104c760048036038101906104c29190612590565b610daa565b005b3480156104d557600080fd5b506104de610dc0565b6040516104eb9190612d14565b60405180910390f35b34801561050057600080fd5b5061051b60048036038101906105169190612515565b610dc6565b005b34801561052957600080fd5b50610544600480360381019061053f919061265a565b610e28565b6040516105519190612a92565b60405180910390f35b34801561056657600080fd5b5061056f610e90565b60405161057c9190612d14565b60405180910390f35b34801561059157600080fd5b506105ac60048036038101906105a7919061248a565b610e96565b6040516105b99190612a77565b60405180910390f35b3480156105ce57600080fd5b506105e960048036038101906105e49190612461565b610f2a565b005b60006105f682610fae565b9050919050565b60606000805461060c90612f39565b80601f016020809104026020016040519081016040528092919081815260200182805461063890612f39565b80156106855780601f1061065a57610100808354040283529160200191610685565b820191906000526020600020905b81548152906001019060200180831161066857829003601f168201915b5050505050905090565b600061069a82611028565b6004600083815260200190815260200160002060009054906101000a900473ffffffffffffffffffffffffffffffffffffffff169050919050565b60006106e082610b6a565b90508073ffffffffffffffffffffffffffffffffffffffff168373ffffffffffffffffffffffffffffffffffffffff161415610751576040517f08c379a000000000000000000000000000000000000000000000000000000000815260040161074890612c94565b60405180910390fd5b8073ffffffffffffffffffffffffffffffffffffffff16610770611073565b73ffffffffffffffffffffffffffffffffffffffff16148061079f575061079e81610799611073565b610e96565b5b6107de576040517f08c379a00000000000000000000000000000000000000000000000000000000081526004016107d590612c14565b60405180910390fd5b6107e8838361107b565b505050565b6000600880549050905090565b61080b610805611073565b82611134565b61084a576040517f08c379a000000000000000000000000000000000000000000000000000000000815260040161084190612cd4565b60405180910390fd5b6108558383836111c9565b505050565b662386f26fc1000034146108a3576040517f08c379a000000000000000000000000000000000000000000000000000000000815260040161089a90612bb4565b60405180910390fd5b600b546108b0600f611430565b106108f0576040517f08c379a00000000000000000000000000000000000000000000000000000000081526004016108e790612b74565b60405180910390fd5b600c546108fc33610c22565b1061093c576040517f08c379a000000000000000000000000000000000000000000000000000000000815260040161093390612b54565b60405180910390fd5b62093a80600e5461094d9190612dc8565b42111561098f576040517f08c379a000000000000000000000000000000000000000000000000000000000815260040161098690612cf4565b60405180910390fd5b600061099b600f611430565b90506109a7600f61143e565b6109b13382611454565b50565b60006109bf83610c22565b8210610a00576040517f08c379a00000000000000000000000000000000000000000000000000000000081526004016109f790612ab4565b60405180910390fd5b600660008473ffffffffffffffffffffffffffffffffffffffff1673ffffffffffffffffffffffffffffffffffffffff168152602001908152602001600020600083815260200190815260200160002054905092915050565b610a7483838360405180602001604052806000815250610dc6565b505050565b600c5481565b6000610a896107ed565b8210610aca576040517f08c379a0000000000000000000000000000000000000000000000000000000008152600401610ac190612cb4565b60405180910390fd5b60088281548110610b04577f4e487b7100000000000000000000000000000000000000000000000000000000600052603260045260246000fd5b90600052602060002001549050919050565b610b1e611472565b8073ffffffffffffffffffffffffffffffffffffffff166108fc600d549081150290604051600060405180830381858888f19350505050158015610b66573d6000803e3d6000fd5b5050565b6000806002600084815260200190815260200160002060009054906101000a900473ffffffffffffffffffffffffffffffffffffffff169050600073ffffffffffffffffffffffffffffffffffffffff168173ffffffffffffffffffffffffffffffffffffffff161415610c13576040517f08c379a0000000000000000000000000000000000000000000000000000000008152600401610c0a90612c74565b60405180910390fd5b80915050919050565b600e5481565b60008073ffffffffffffffffffffffffffffffffffffffff168273ffffffffffffffffffffffffffffffffffffffff161415610c93576040517f08c379a0000000000000000000000000000000000000000000000000000000008152600401610c8a90612bf4565b60405180910390fd5b600360008373ffffffffffffffffffffffffffffffffffffffff1673ffffffffffffffffffffffffffffffffffffffff168152602001908152602001600020549050919050565b610ce2611472565b610cec60006114f0565b565b6000600a60009054906101000a900473ffffffffffffffffffffffffffffffffffffffff16905090565b606060018054610d2790612f39565b80601f0160208091040260200160405190810160405280929190818152602001828054610d5390612f39565b8015610da05780601f10610d7557610100808354040283529160200191610da0565b820191906000526020600020905b815481529060010190602001808311610d8357829003601f168201915b5050505050905090565b610dbc610db5611073565b83836115b6565b5050565b600d5481565b610dd7610dd1611073565b83611134565b610e16576040517f08c379a0000000000000000000000000000000000000000000000000000000008152600401610e0d90612cd4565b60405180910390fd5b610e2284848484611723565b50505050565b6060610e3382611028565b6000610e3d61177f565b90506000815111610e5d5760405180602001604052806000815250610e88565b80610e6784611796565b604051602001610e789291906129ec565b6040516020818303038152906040525b915050919050565b600b5481565b6000600560008473ffffffffffffffffffffffffffffffffffffffff1673ffffffffffffffffffffffffffffffffffffffff16815260200190815260200160002060008373ffffffffffffffffffffffffffffffffffffffff1673ffffffffffffffffffffffffffffffffffffffff16815260200190815260200160002060009054906101000a900460ff16905092915050565b610f32611472565b600073ffffffffffffffffffffffffffffffffffffffff168173ffffffffffffffffffffffffffffffffffffffff161415610fa2576040517f08c379a0000000000000000000000000000000000000000000000000000000008152600401610f9990612af4565b60405180910390fd5b610fab816114f0565b50565b60007f780e9d63000000000000000000000000000000000000000000000000000000007bffffffffffffffffffffffffffffffffffffffffffffffffffffffff1916827bffffffffffffffffffffffffffffffffffffffffffffffffffffffff19161480611021575061102082611943565b5b9050919050565b61103181611a25565b611070576040517f08c379a000000000000000000000000000000000000000000000000000000000815260040161106790612c74565b60405180910390fd5b50565b600033905090565b816004600083815260200190815260200160002060006101000a81548173ffffffffffffffffffffffffffffffffffffffff021916908373ffffffffffffffffffffffffffffffffffffffff160217905550808273ffffffffffffffffffffffffffffffffffffffff166110ee83610b6a565b73ffffffffffffffffffffffffffffffffffffffff167f8c5be1e5ebec7d5bd14f71427d1e84f3dd0314c0f7b2291e5b200ac8c7c3b92560405160405180910390a45050565b60008061114083610b6a565b90508073ffffffffffffffffffffffffffffffffffffffff168473ffffffffffffffffffffffffffffffffffffffff16148061118257506111818185610e96565b5b806111c057508373ffffffffffffffffffffffffffffffffffffffff166111a88461068f565b73ffffffffffffffffffffffffffffffffffffffff16145b91505092915050565b8273ffffffffffffffffffffffffffffffffffffffff166111e982610b6a565b73ffffffffffffffffffffffffffffffffffffffff161461123f576040517f08c379a000000000000000000000000000000000000000000000000000000000815260040161123690612b14565b60405180910390fd5b600073ffffffffffffffffffffffffffffffffffffffff168273ffffffffffffffffffffffffffffffffffffffff1614156112af576040517f08c379a00000000000000000000000000000000000000000000000000000000081526004016112a690612b94565b60405180910390fd5b6112ba838383611a91565b6112c560008261107b565b6001600360008573ffffffffffffffffffffffffffffffffffffffff1673ffffffffffffffffffffffffffffffffffffffff16815260200190815260200160002060008282546113159190612e4f565b925050819055506001600360008473ffffffffffffffffffffffffffffffffffffffff1673ffffffffffffffffffffffffffffffffffffffff168152602001908152602001600020600082825461136c9190612dc8565b92505081905550816002600083815260200190815260200160002060006101000a81548173ffffffffffffffffffffffffffffffffffffffff021916908373ffffffffffffffffffffffffffffffffffffffff160217905550808273ffffffffffffffffffffffffffffffffffffffff168473ffffffffffffffffffffffffffffffffffffffff167fddf252ad1be2c89b69c2b068fc378daa952ba7f163c4a11628f55a4df523b3ef60405160405180910390a461142b838383611aa1565b505050565b600081600001549050919050565b6001816000016000828254019250508190555050565b61146e828260405180602001604052806000815250611aa6565b5050565b61147a611073565b73ffffffffffffffffffffffffffffffffffffffff16611498610cee565b73ffffffffffffffffffffffffffffffffffffffff16146114ee576040517f08c379a00000000000000000000000000000000000000000000000000000000081526004016114e590612c54565b60405180910390fd5b565b6000600a60009054906101000a900473ffffffffffffffffffffffffffffffffffffffff16905081600a60006101000a81548173ffffffffffffffffffffffffffffffffffffffff021916908373ffffffffffffffffffffffffffffffffffffffff1602179055508173ffffffffffffffffffffffffffffffffffffffff168173ffffffffffffffffffffffffffffffffffffffff167f8be0079c531659141344cd1fd0a4f28419497f9722a3daafe3b4186f6b6457e060405160405180910390a35050565b8173ffffffffffffffffffffffffffffffffffffffff168373ffffffffffffffffffffffffffffffffffffffff161415611625576040517f08c379a000000000000000000000000000000000000000000000000000000000815260040161161c90612bd4565b60405180910390fd5b80600560008573ffffffffffffffffffffffffffffffffffffffff1673ffffffffffffffffffffffffffffffffffffffff16815260200190815260200160002060008473ffffffffffffffffffffffffffffffffffffffff1673ffffffffffffffffffffffffffffffffffffffff16815260200190815260200160002060006101000a81548160ff0219169083151502179055508173ffffffffffffffffffffffffffffffffffffffff168373ffffffffffffffffffffffffffffffffffffffff167f17307eab39ab6107e8899845ad3d59bd9653f200f220920489ca2b5937696c31836040516117169190612a77565b60405180910390a3505050565b61172e8484846111c9565b61173a84848484611b01565b611779576040517f08c379a000000000000000000000000000000000000000000000000000000000815260040161177090612ad4565b60405180910390fd5b50505050565b606060405180602001604052806000815250905090565b606060008214156117de576040518060400160405280600181526020017f3000000000000000000000000000000000000000000000000000000000000000815250905061193e565b600082905060005b600082146118105780806117f990612f9c565b915050600a826118099190612e1e565b91506117e6565b60008167ffffffffffffffff811115611852577f4e487b7100000000000000000000000000000000000000000000000000000000600052604160045260246000fd5b6040519080825280601f01601f1916602001820160405280156118845781602001600182028036833780820191505090505b5090505b600085146119375760018261189d9190612e4f565b9150600a856118ac9190612fe5565b60306118b89190612dc8565b60f81b8183815181106118f4577f4e487b7100000000000000000000000000000000000000000000000000000000600052603260045260246000fd5b60200101907effffffffffffffffffffffffffffffffffffffffffffffffffffffffffffff1916908160001a905350600a856119309190612e1e565b9450611888565b8093505050505b919050565b60007f80ac58cd000000000000000000000000000000000000000000000000000000007bffffffffffffffffffffffffffffffffffffffffffffffffffffffff1916827bffffffffffffffffffffffffffffffffffffffffffffffffffffffff19161480611a0e57507f5b5e139f000000000000000000000000000000000000000000000000000000007bffffffffffffffffffffffffffffffffffffffffffffffffffffffff1916827bffffffffffffffffffffffffffffffffffffffffffffffffffffffff1916145b80611a1e5750611a1d82611c98565b5b9050919050565b60008073ffffffffffffffffffffffffffffffffffffffff166002600084815260200190815260200160002060009054906101000a900473ffffffffffffffffffffffffffffffffffffffff1673ffffffffffffffffffffffffffffffffffffffff1614159050919050565b611a9c838383611d02565b505050565b505050565b611ab08383611e16565b611abd6000848484611b01565b611afc576040517f08c379a0000000000000000000000000000000000000000000000000000000008152600401611af390612ad4565b60405180910390fd5b505050565b6000611b228473ffffffffffffffffffffffffffffffffffffffff16611ff0565b15611c8b578373ffffffffffffffffffffffffffffffffffffffff1663150b7a02611b4b611073565b8786866040518563ffffffff1660e01b8152600401611b6d9493929190612a2b565b602060405180830381600087803b158015611b8757600080fd5b505af1925050508015611bb857506040513d601f19601f82011682018060405250810190611bb59190612631565b60015b611c3b573d8060008114611be8576040519150601f19603f3d011682016040523d82523d6000602084013e611bed565b606091505b50600081511415611c33576040517f08c379a0000000000000000000000000000000000000000000000000000000008152600401611c2a90612ad4565b60405180910390fd5b805181602001fd5b63150b7a0260e01b7bffffffffffffffffffffffffffffffffffffffffffffffffffffffff1916817bffffffffffffffffffffffffffffffffffffffffffffffffffffffff191614915050611c90565b600190505b949350505050565b60007f01ffc9a7000000000000000000000000000000000000000000000000000000007bffffffffffffffffffffffffffffffffffffffffffffffffffffffff1916827bffffffffffffffffffffffffffffffffffffffffffffffffffffffff1916149050919050565b611d0d838383612013565b600073ffffffffffffffffffffffffffffffffffffffff168373ffffffffffffffffffffffffffffffffffffffff161415611d5057611d4b81612018565b611d8f565b8173ffffffffffffffffffffffffffffffffffffffff168373ffffffffffffffffffffffffffffffffffffffff1614611d8e57611d8d8382612061565b5b5b600073ffffffffffffffffffffffffffffffffffffffff168273ffffffffffffffffffffffffffffffffffffffff161415611dd257611dcd816121ce565b611e11565b8273ffffffffffffffffffffffffffffffffffffffff168273ffffffffffffffffffffffffffffffffffffffff1614611e1057611e0f8282612311565b5b5b505050565b600073ffffffffffffffffffffffffffffffffffffffff168273ffffffffffffffffffffffffffffffffffffffff161415611e86576040517f08c379a0000000000000000000000000000000000000000000000000000000008152600401611e7d90612c34565b60405180910390fd5b611e8f81611a25565b15611ecf576040517f08c379a0000000000000000000000000000000000000000000000000000000008152600401611ec690612b34565b60405180910390fd5b611edb60008383611a91565b6001600360008473ffffffffffffffffffffffffffffffffffffffff1673ffffffffffffffffffffffffffffffffffffffff1681526020019081526020016000206000828254611f2b9190612dc8565b92505081905550816002600083815260200190815260200160002060006101000a81548173ffffffffffffffffffffffffffffffffffffffff021916908373ffffffffffffffffffffffffffffffffffffffff160217905550808273ffffffffffffffffffffffffffffffffffffffff16600073ffffffffffffffffffffffffffffffffffffffff167fddf252ad1be2c89b69c2b068fc378daa952ba7f163c4a11628f55a4df523b3ef60405160405180910390a4611fec60008383611aa1565b5050565b6000808273ffffffffffffffffffffffffffffffffffffffff163b119050919050565b505050565b6008805490506009600083815260200190815260200160002081905550600881908060018154018082558091505060019003906000526020600020016000909190919091505550565b6000600161206e84610c22565b6120789190612e4f565b905060006007600084815260200190815260200160002054905081811461215d576000600660008673ffffffffffffffffffffffffffffffffffffffff1673ffffffffffffffffffffffffffffffffffffffff168152602001908152602001600020600084815260200190815260200160002054905080600660008773ffffffffffffffffffffffffffffffffffffffff1673ffffffffffffffffffffffffffffffffffffffff168152602001908152602001600020600084815260200190815260200160002081905550816007600083815260200190815260200160002081905550505b6007600084815260200190815260200160002060009055600660008573ffffffffffffffffffffffffffffffffffffffff1673ffffffffffffffffffffffffffffffffffffffff16815260200190815260200160002060008381526020019081526020016000206000905550505050565b600060016008805490506121e29190612e4f565b9050600060096000848152602001908152602001600020549050600060088381548110612238577f4e487b7100000000000000000000000000000000000000000000000000000000600052603260045260246000fd5b906000526020600020015490508060088381548110612280577f4e487b7100000000000000000000000000000000000000000000000000000000600052603260045260246000fd5b9060005260206000200181905550816009600083815260200190815260200160002081905550600960008581526020019081526020016000206000905560088054806122f5577f4e487b7100000000000000000000000000000000000000000000000000000000600052603160045260246000fd5b6001900381819060005260206000200160009055905550505050565b600061231c83610c22565b905081600660008573ffffffffffffffffffffffffffffffffffffffff1673ffffffffffffffffffffffffffffffffffffffff168152602001908152602001600020600083815260200190815260200160002081905550806007600084815260200190815260200160002081905550505050565b60006123a361239e84612d54565b612d2f565b9050828152602081018484840111156123bb57600080fd5b6123c6848285612ef7565b509392505050565b6000813590506123dd8161356a565b92915050565b6000813590506123f281613581565b92915050565b60008135905061240781613598565b92915050565b60008151905061241c81613598565b92915050565b600082601f83011261243357600080fd5b8135612443848260208601612390565b91505092915050565b60008135905061245b816135af565b92915050565b60006020828403121561247357600080fd5b6000612481848285016123ce565b91505092915050565b6000806040838503121561249d57600080fd5b60006124ab858286016123ce565b92505060206124bc858286016123ce565b9150509250929050565b6000806000606084860312156124db57600080fd5b60006124e9868287016123ce565b93505060206124fa868287016123ce565b925050604061250b8682870161244c565b9150509250925092565b6000806000806080858703121561252b57600080fd5b6000612539878288016123ce565b945050602061254a878288016123ce565b935050604061255b8782880161244c565b925050606085013567ffffffffffffffff81111561257857600080fd5b61258487828801612422565b91505092959194509250565b600080604083850312156125a357600080fd5b60006125b1858286016123ce565b92505060206125c2858286016123e3565b9150509250929050565b600080604083850312156125df57600080fd5b60006125ed858286016123ce565b92505060206125fe8582860161244c565b9150509250929050565b60006020828403121561261a57600080fd5b6000612628848285016123f8565b91505092915050565b60006020828403121561264357600080fd5b60006126518482850161240d565b91505092915050565b60006020828403121561266c57600080fd5b600061267a8482850161244c565b91505092915050565b61268c81612e83565b82525050565b61269b81612e95565b82525050565b60006126ac82612d85565b6126b68185612d9b565b93506126c6818560208601612f06565b6126cf816130d2565b840191505092915050565b60006126e582612d90565b6126ef8185612dac565b93506126ff818560208601612f06565b612708816130d2565b840191505092915050565b600061271e82612d90565b6127288185612dbd565b9350612738818560208601612f06565b80840191505092915050565b6000612751602b83612dac565b915061275c826130e3565b604082019050919050565b6000612774603283612dac565b915061277f82613132565b604082019050919050565b6000612797602683612dac565b91506127a282613181565b604082019050919050565b60006127ba602583612dac565b91506127c5826131d0565b604082019050919050565b60006127dd601c83612dac565b91506127e88261321f565b602082019050919050565b6000612800601e83612dac565b915061280b82613248565b602082019050919050565b6000612823601683612dac565b915061282e82613271565b602082019050919050565b6000612846602483612dac565b91506128518261329a565b604082019050919050565b6000612869601783612dac565b9150612874826132e9565b602082019050919050565b600061288c601983612dac565b915061289782613312565b602082019050919050565b60006128af602983612dac565b91506128ba8261333b565b604082019050919050565b60006128d2603e83612dac565b91506128dd8261338a565b604082019050919050565b60006128f5602083612dac565b9150612900826133d9565b602082019050919050565b6000612918602083612dac565b915061292382613402565b602082019050919050565b600061293b601883612dac565b91506129468261342b565b602082019050919050565b600061295e602183612dac565b915061296982613454565b604082019050919050565b6000612981602c83612dac565b915061298c826134a3565b604082019050919050565b60006129a4602e83612dac565b91506129af826134f2565b604082019050919050565b60006129c7601c83612dac565b91506129d282613541565b602082019050919050565b6129e681612eed565b82525050565b60006129f88285612713565b9150612a048284612713565b91508190509392505050565b6000602082019050612a256000830184612683565b92915050565b6000608082019050612a406000830187612683565b612a4d6020830186612683565b612a5a60408301856129dd565b8181036060830152612a6c81846126a1565b905095945050505050565b6000602082019050612a8c6000830184612692565b92915050565b60006020820190508181036000830152612aac81846126da565b905092915050565b60006020820190508181036000830152612acd81612744565b9050919050565b60006020820190508181036000830152612aed81612767565b9050919050565b60006020820190508181036000830152612b0d8161278a565b9050919050565b60006020820190508181036000830152612b2d816127ad565b9050919050565b60006020820190508181036000830152612b4d816127d0565b9050919050565b60006020820190508181036000830152612b6d816127f3565b9050919050565b60006020820190508181036000830152612b8d81612816565b9050919050565b60006020820190508181036000830152612bad81612839565b9050919050565b60006020820190508181036000830152612bcd8161285c565b9050919050565b60006020820190508181036000830152612bed8161287f565b9050919050565b60006020820190508181036000830152612c0d816128a2565b9050919050565b60006020820190508181036000830152612c2d816128c5565b9050919050565b60006020820190508181036000830152612c4d816128e8565b9050919050565b60006020820190508181036000830152612c6d8161290b565b9050919050565b60006020820190508181036000830152612c8d8161292e565b9050919050565b60006020820190508181036000830152612cad81612951565b9050919050565b60006020820190508181036000830152612ccd81612974565b9050919050565b60006020820190508181036000830152612ced81612997565b9050919050565b60006020820190508181036000830152612d0d816129ba565b9050919050565b6000602082019050612d2960008301846129dd565b92915050565b6000612d39612d4a565b9050612d458282612f6b565b919050565b6000604051905090565b600067ffffffffffffffff821115612d6f57612d6e6130a3565b5b612d78826130d2565b9050602081019050919050565b600081519050919050565b600081519050919050565b600082825260208201905092915050565b600082825260208201905092915050565b600081905092915050565b6000612dd382612eed565b9150612dde83612eed565b9250827fffffffffffffffffffffffffffffffffffffffffffffffffffffffffffffffff03821115612e1357612e12613016565b5b828201905092915050565b6000612e2982612eed565b9150612e3483612eed565b925082612e4457612e43613045565b5b828204905092915050565b6000612e5a82612eed565b9150612e6583612eed565b925082821015612e7857612e77613016565b5b828203905092915050565b6000612e8e82612ecd565b9050919050565b60008115159050919050565b60007fffffffff0000000000000000000000000000000000000000000000000000000082169050919050565b600073ffffffffffffffffffffffffffffffffffffffff82169050919050565b6000819050919050565b82818337600083830152505050565b60005b83811015612f24578082015181840152602081019050612f09565b83811115612f33576000848401525b50505050565b60006002820490506001821680612f5157607f821691505b60208210811415612f6557612f64613074565b5b50919050565b612f74826130d2565b810181811067ffffffffffffffff82111715612f9357612f926130a3565b5b80604052505050565b6000612fa782612eed565b91507fffffffffffffffffffffffffffffffffffffffffffffffffffffffffffffffff821415612fda57612fd9613016565b5b600182019050919050565b6000612ff082612eed565b9150612ffb83612eed565b92508261300b5761300a613045565b5b828206905092915050565b7f4e487b7100000000000000000000000000000000000000000000000000000000600052601160045260246000fd5b7f4e487b7100000000000000000000000000000000000000000000000000000000600052601260045260246000fd5b7f4e487b7100000000000000000000000000000000000000000000000000000000600052602260045260246000fd5b7f4e487b7100000000000000000000000000000000000000000000000000000000600052604160045260246000fd5b6000601f19601f8301169050919050565b7f455243373231456e756d657261626c653a206f776e657220696e646578206f7560008201527f74206f6620626f756e6473000000000000000000000000000000000000000000602082015250565b7f4552433732313a207472616e7366657220746f206e6f6e20455243373231526560008201527f63656976657220696d706c656d656e7465720000000000000000000000000000602082015250565b7f4f776e61626c653a206e6577206f776e657220697320746865207a65726f206160008201527f6464726573730000000000000000000000000000000000000000000000000000602082015250565b7f4552433732313a207472616e736665722066726f6d20696e636f72726563742060008201527f6f776e6572000000000000000000000000000000000000000000000000000000602082015250565b7f4552433732313a20746f6b656e20616c7265616479206d696e74656400000000600082015250565b7f55736572206861732072656163686564206d696e74696e67206c696d69740000600082015250565b7f4e6f206d6f7265204e46547320617661696c61626c6500000000000000000000600082015250565b7f4552433732313a207472616e7366657220746f20746865207a65726f2061646460008201527f7265737300000000000000000000000000000000000000000000000000000000602082015250565b7f496e636f7272656374206d696e74696e67207072696365000000000000000000600082015250565b7f4552433732313a20617070726f766520746f2063616c6c657200000000000000600082015250565b7f4552433732313a2061646472657373207a65726f206973206e6f74206120766160008201527f6c6964206f776e65720000000000000000000000000000000000000000000000602082015250565b7f4552433732313a20617070726f76652063616c6c6572206973206e6f7420746f60008201527f6b656e206f776e6572206e6f7220617070726f76656420666f7220616c6c0000602082015250565b7f4552433732313a206d696e7420746f20746865207a65726f2061646472657373600082015250565b7f4f776e61626c653a2063616c6c6572206973206e6f7420746865206f776e6572600082015250565b7f4552433732313a20696e76616c696420746f6b656e2049440000000000000000600082015250565b7f4552433732313a20617070726f76616c20746f2063757272656e74206f776e6560008201527f7200000000000000000000000000000000000000000000000000000000000000602082015250565b7f455243373231456e756d657261626c653a20676c6f62616c20696e646578206f60008201527f7574206f6620626f756e64730000000000000000000000000000000000000000602082015250565b7f4552433732313a2063616c6c6572206973206e6f7420746f6b656e206f776e6560008201527f72206e6f7220617070726f766564000000000000000000000000000000000000602082015250565b7f4d696e74696e672077696e646f77206973206e6f7720636c6f73656400000000600082015250565b61357381612e83565b811461357e57600080fd5b50565b61358a81612e95565b811461359557600080fd5b50565b6135a181612ea1565b81146135ac57600080fd5b50565b6135b881612eed565b81146135c357600080fd5b5056fea264697066735822122090e4405dcda301843a481fd49d44abb5ecebbc41e930c7c31fa20517339962d764736f6c63430008040033",
  "linkReferences": {},
  "deployedLinkReferences": {}
}